S0140000524551345F436172576974682E73726563E3
S11300000C9432000C94D9000C944F000C944F00C3
S11300100C944F000C9435010C944F000C944F0039
S11300200C944F000C944F000C944F000C944F0010
S11300300C944F000C944F000C944F000C944F0000
S11300400C944F000C944F000C944F000C944F00F0
S11300500C944F007A037F0386038D0394039B0360
S1130060A203A90311241FBECFE5D8E0DEBFCDBF94
S113007010E0A0E6B0E0E4EAFBE002C005900D92D7
S1130080AA36B107D9F720E0AAE6B0E001C01D9274
S1130090A138B207E1F70E9437020C94D0050C9402
S11300A00000813041F028F0823039F0833039F09B
S11300B008956ABB089567BB089564BB089561BB46
S11300C008958130A1F028F08230F9F0833059F19D
S11300D00895442319F04F3F31F008958AB3609591
S11300E068236ABB08958AB3682B6ABB08954423C6
S11300F019F04F3F31F0089587B36095682367BBCB
S1130100089587B3682B67BB0895442319F04F3FC4
S113011031F0089584B36095682364BB089584B373
S1130120682B64BB0895442319F04F3F31F00895C0
S113013081B36095682361BB089581B3682B61BB6B
S113014008954423D1F0413099F5813051F028F0DD
S1130150823059F0833069F008958BB3682B6BBB00
S1130160089588B3682B68BB089585B3682B65BB75
S1130170089582B3682B62BB0895813059F028F04A
S1130180823069F0833081F008958BB360956823E1
S11301906BBB089588B36095682368BB089585B3E5
S11301A06095682365BB089582B36095682362BB3C
S11301B008951F920F920FB60F9211242F933F931D
S11301C04F935F936F937F938F939F93AF93BF935B
S11301D0CF93DF93EF93FF9380917300811109C054
S11301E014BC0E94B2031092720081E080937300E9
S11301F029C080917300813029F5A091720084B5E3
S1130200B0E0BA2FAA27A80FB11D2DE730E00E9455
S1130210BE05DC01CB0180936A0090936B00A09330
S11302206C00B0936D0010926E0010926F001092EB
S11302307000109271000E9460031092720014BC4E
S113024010927300FF91EF91DF91CF91BF91AF9125
S11302509F918F917F916F915F914F913F912F91DA
S11302600F900FBE0F901F9018951F920F920FB60C
S11302700F9211248F93809172008F5F809372008C
S11302808F910F900FBE0F901F90189520916A00C8
S113029030916B0040916C0050916D0060916E0044
S11302A070916F0080917000909171000E948B0496
S11302B028E23BE64EE65EE40E94EA0320E03CEFDF
S11302C045E856E40E941A050E945C040895EF92E2
S11302D00F938BB780648BBF85B7816085BF85B76B
S11302E08D7F85BF6894EE24E6F800E020E041E0CD
S11302F060E080E00E9464038FB780688FBF0F9135
S1130300EF90089541E061E080E00E94A10088E25E
S11303108A95F1F740E061E080E00E94A100089531
S11303208032A1F018F4803131F008958034C9F09E
S1130330803811F108954FEF60E181E00E9461007F
S113034040E060E181E00E94A10008954FEF60E287
S113035081E00E94610040E060E281E00E94A1002F
S113036008954FEF60E481E00E94610040E060E4A2
S113037081E00E94A10008954FEF60E881E00E94AF
S1130380610040E060E881E00E94A10008958032AD
S113039079F018F4803131F00895803479F08038A0
S11303A099F0089541E060E181E00E94A100089580
S11303B041E060E281E00E94A100089541E060E430
S11303C081E00E94A100089541E060E881E00E947C
S11303D0A1000895803279F018F4803131F0089545
S11303E0803479F0803899F0089540E060E181E04C
S11303F00E94A100089540E060E281E00E94A10013
S1130400089540E060E481E00E94A100089540E086
S113041060E881E00E94A100089541E060E180E08D
S11304200E94A10040E060E280E00E94A10041E05F
S113043060E480E00E94A10040E060E880E00E9467
S1130440A100089540E060E180E00E94A10041E045
S113045060E280E00E94A10041E060E480E00E944C
S1130460A10040E060E880E00E94A10008956FEFE1
S113047080E00E9451006FEF82E00E94510040E052
S113048064E083E00E9461004FEF60E283E00E9439
S1130490610080E10E94900180E20E9490010E942C
S11304A06701A12CC12CD12CE12C00E020E030E02C
S11304B045E060E882E10E9408030E94590364EF6A
S11304C071E082E30E94B80381E690E00E949A0200
S11304D080E00E94FE020E9482010E9446016E3169
S11304E07105B8F464EF71E082E30E94B8030E94DE
S11304F022022FEF81EE94E0215080409040E1F7FA
S113050000C0000080E10E94C70180E20E94EA016D
S1130510E2CF6F317105F8F264EF71E084E60E9476
S1130520B8030E940D0280E10E94EA0180E20E9469
S1130530C701D1CFFC0185819681A781B0858093C5
S1130540760090937700A0937800B093790080812F
S1130550811152C023B79181922B93BF29B7948103
S1130560922B99BF909160009230C1F028F49923A6
S113057049F0913061F02DC09430F1F0B0F0953035
S113058011F127C010927F0010927E0022C021E05A
S113059030E030937F0020937E001BC028E030E0E1
S11305A030937F0020937E0014C020E430E0309329
S11305B07F0020937E000DC020E031E030937F0067
S11305C020937E0006C020E034E030937F00209327
S11305D07E0022813381220F232F221F330B31957A
S11305E02F3F310550F489E0821B80938000809175
S11305F0800082BF81E0089581E00895811106C0E2
S113060083B790916000887F892B83BF81E0089530
S1130610AF92EF920F939FB5582F5370952B9FBDB8
S11306209FB5692B6FBD9EB58871892B8EBD3DBD6D
S11306302CBD0ABDEBBC89B7A82AA9BE409375009E
S11306404230C1F028F4442349F0413061F02DC018
S11306504430F1F0B0F0453011F127C010927D0024
S113066010927C0022C081E090E090937D00809302
S11306707C001BC088E090E090937D0080937C0018
S113068014C080E490E090937D0080937C000DC0C2
S113069080E091E090937D0080937C0006C080E030
S11306A094E090937D0080937C000F91EF90AF9045
S11306B008958EB590917500887F892B8EBD08951D
S11306C08EB5887F8EBD0895EF920F9395B5692BF3
S11306D0862B85BD24BD03BD89B7E82AE9BE4093B6
S11306E0740050E048305105D0F5FA01E65DFF4F43
S11306F00C94A90510927B0010927A0030C081E01E
S113070090E090937B0080937A0029C088E090E089
S113071090937B0080937A0022C080E290E09093D3
S11307207B0080937A001BC080E490E090937B0070
S113073080937A0014C080E890E090937B008093CB
S11307407A000DC080E091E090937B0080937A0062
S113075006C080E094E090937B0080937A000F9130
S1130760EF9008959091740085B5892B85BD089507
S1130770CF92DF92EF92FF92CF93C82F20E030E028
S1130780362F330F330F330F40E050E060E072E157
S11307908AE790E00E94870569017A01AC2FB0E0F6
S11307A00E94C50524E630E040E050E00E94870541
S11307B0BB27AF2D9E2D8D2D87BDC6BCBB27A52F76
S11307C0942F832F8BBD2ABDCF91FF90EF90DF90A4
S11307D0CF9008950E94FE030C94E0040E94D90473
S11307E058F00E94D20440F029F45F3F29F00C94A1
S11307F0C90451110C9414050C94CF040E94F10403
S113080068F39923B1F3552391F3951B550BBB273B
S1130810AA2762177307840738F09F5F5F4F220F80
S1130820331F441FAA1FA9F335D00E2E3AF0E0E877
S113083032D091505040E695001CCAF72BD0FE2FC1
S113084029D0660F771F881FBB1F26173707480755
S1130850AB07B0E809F0BB0B802DBF01FF2793580D
S11308605F4F3AF09E3F510578F00C94C9040C9404
S113087014055F3FE4F3983ED4F386957795679526
S1130880B795F7959F5FC9F7880F911D9695879542
S113089097F90895E1E0660F771F881FBB1F621761
S11308A073078407BA0720F0621B730B840BBA0B1F
S11308B0EE1F88F7E09508950E94F90488F09F5789
S11308C098F0B92F9927B751B0F0E1F0660F771F70
S11308D0881F991F1AF0BA95C9F714C0B13091F066
S11308E00E941305B1E008950C941305672F782F27
S11308F08827B85F39F0B93FCCF38695779567952B
S1130900B395D9F73EF490958095709561957F4F96
S11309108F4F9F4F0895E894F92F96EBFF2381F0B2
S1130920121613061406440B9395F695879577953E
S1130930679557954040FF23B9F71BC09927089541
S1130940882351F49850D2F7872B762F652F542F94
S1130950432F322F20E0B1F3121613061406440B72
S113096088233AF09A95440F551F661F771F881FF6
S1130970CAF755234AF4440F551F11F460FF04C00D
S11309806F5F7F4F8F4F9F4F880F9695879597F98D
S1130990089597F99F6780E870E060E008959FEFFD
S11309A080EC089500240A94161617061806090602
S11309B0089500240A9412161306140605060895D1
S11309C0092E0394000C11F4882352F0BB0F40F459
S11309D0BF2B11F460FF04C06F5F7F4F8F4F9F4F99
S11309E0089557FD9058440F551F59F05F3F71F01B
S11309F04795880F97FB991F61F09F3F79F0879582
S1130A000895121613061406551FF2CF4695F1DF0A
S1130A1008C0161617061806991FF1CF869571059A
S1130A20610508940895E894BB2766277727CB01CE
S1130A3097F908950E942D050C94E0040E94D204B5
S1130A4038F00E94D90420F0952311F00C94C904C5
S1130A500C94CF0411240C9414050E94F10470F337
S1130A60959FC1F3950F50E0551F629FF001729F4F
S1130A70BB27F00DB11D639FAA27F00DB11DAA1F5E
S1130A80649F6627B00DA11D661F829F2227B00DAB
S1130A90A11D621F739FB00DA11D621F839FA00D36
S1130AA0611D221F749F3327A00D611D231F849F86
S1130AB0600D211D822F762F6A2F11249F575040DD
S1130AC09AF0F1F088234AF0EE0FFF1FBB1F661F58
S1130AD0771F881F91505040A9F79E3F510580F021
S1130AE00C94C9040C9414055F3FE4F3983ED4F3CA
S1130AF0869577956795B795F795E7959F5FC1F7C5
S1130B00FE2B880F911D9695879597F90895A1E27C
S1130B101A2EAA1BBB1BFD010DC0AA1FBB1FEE1F73
S1130B20FF1FA217B307E407F50720F0A21BB30BBE
S1130B30E40BF50B661F771F881F991F1A9469F73A
S1130B4060957095809590959B01AC01BD01CF0196
S1130B500895EE0FFF1F0590F491E02D0994A29FD4
S1130B60B001B39FC001A39F700D811D1124911D7D
S1130B70B29F700D811D1124911D08950E94AF052F
S1130B80B7FF0895821B930B08950E94AF05A59F9C
S1130B90900DB49F900DA49F800D911D1124089574
S1070BA0F894FFCFF3
S10D0BA4050000204E0100127A0043
S9030000FC
