S0140000524551345F436172576974682E73726563E3
S11300000C9432000C94C8010C9444000C944400E9
S11300100C9444000C943F020C9444000C9444004F
S11300200C9444000C9444000C9444000C9444003C
S11300300C9444000C9444000C9444000C9444002C
S11300400C9444000C9444000C9444000C9444001C
S11300500C94440018081D0824082B083208390899
S11300604008470811241FBECFE5D8E0DEBFCDBF4E
S113007020E0A0E6B0E001C01D92A337B207E1F78B
S11300800E94F6030C94CA0B0C940000CF93DF93E8
S113009000D0CDB7DEB789836A838981882F90E049
S11300A08130910591F0823091051CF4892B39F04F
S11300B01EC08230910579F0039799F018C08AE345
S11300C090E02A81FC01208312C087E390E02A811A
S11300D0FC0120830CC084E390E02A81FC0120838E
S11300E006C081E390E02A81FC0120830000000027
S11300F00F900F90DF91CF910895CF93DF9300D0AD
S11301001F92CDB7DEB789836A834B838981882F99
S113011090E08130910581F1823091051CF4892BA6
S113012049F090C08230910509F448C0039709F45E
S113013067C088C08B81882F90E0009721F08F3FA3
S1130140910571F07FC08AE390E02AE330E0F90181
S11301502081322F2A8120952323FC0120830BC088
S11301608AE390E02AE330E0F90130812A81232BED
S1130170FC012083000066C08B81882F90E00097EB
S113018021F08F3F910571F05DC087E390E027E394
S113019030E0F9012081322F2A8120952323FC01AC
S11301A020830BC087E390E027E330E0F90130813E
S11301B02A81232BFC012083000044C08B81882FDB
S11301C090E0009721F08F3F910571F03BC084E3EC
S11301D090E024E330E0F9012081322F2A81209538
S11301E02323FC0120830BC084E390E024E330E06C
S11301F0F90130812A81232BFC012083000022C0D5
S11302008B81882F90E0009721F08F3F910571F04A
S113021018C081E390E021E330E0F9012081322F1E
S11302202A8120952323FC0120830BC081E390E0E5
S113023021E330E0F90130812A81232BFC01208362
S11302400000000000000F900F900F90DF91CF91FD
S11302500895CF93DF9300D01F92CDB7DEB7898383
S11302606A834B838B81882F90E0009709F442C006
S1130270019709F086C08981882F90E0813091052B
S1130280B9F0823091051CF4892B39F07AC08230A0
S11302909105C9F0039711F174C08BE390E02BE34F
S11302A030E0F90130812A81232BFC01208321C015
S11302B088E390E028E330E0F90130812A81232BA0
S11302C0FC01208316C085E390E025E330E0F901CA
S11302D030812A81232BFC0120830BC082E390E030
S11302E022E330E0F90130812A81232BFC012083B1
S11302F0000047C08981882F90E081309105C9F0C2
S1130300823091051CF4892B39F03AC08230910572
S1130310E9F0039741F134C08BE390E02BE330E044
S1130320F9012081322F2A8120952323FC01208387
S113033027C088E390E028E330E0F9012081322FE0
S11303402A8120952323FC0120831AC085E390E0B1
S113035025E330E0F9012081322F2A8120952323DF
S1130360FC0120830DC082E390E022E330E0F90138
S11303702081322F2A8120952323FC012083000031
S1130380000000000F900F900F90DF91CF9108951F
S11303901F920F9200905F000F9211242F933F93AE
S11303A04F935F936F937F938F939F93AF93BF9379
S11303B0EF93FF93CF93DF93CDB7DEB780916000C7
S11303C0882361F484E490E0FC0110820E945A08BE
S11303D01092610081E0809360003CC080916000D5
S11303E08130C1F580916100882F90E0382F222759
S11303F084E490E0FC018081882F90E0820F931FB9
S11304009C01990F440B550B8DE790E0DC010E9491
S11304103F0BDC01CB019C01AD0160E070E0CB013E
S1130420209362003093630040936400509365000E
S113043060936600709367008093680090936900EE
S11304400E94C0071092610084E490E0FC011082D5
S1130450109260000000DF91CF91FF91EF91BF9166
S1130460AF919F918F917F916F915F914F913F9148
S11304702F910F9000925F000F901F9018951F927C
S11304800F9200905F000F9211248F93CF93DF930C
S1130490CDB7DEB7809161008F5F8093610000006B
S11304A0DF91CF918F910F9000925F000F901F907A
S11304B01895AF92BF92CF92DF92EF92FF920F9373
S11304C01F93CF93DF9300D000D0CDB7DEB7A090B9
S11304D06200B0906300C0906400D0906500E0902A
S11304E06600F090670000916800109169002A2D61
S11304F03B2D4C2D5D2D6E2D7F2D802F912F0E9435
S1130500FB09DC01CB0128E23BE64EE65EE4BC01DC
S1130510CD010E94DB08DC01CB0120E03CEF45E883
S113052056E4BC01CD010E949A0ADC01CB01BC0156
S1130530CD010E948909DC01CB0189839A83AB83B5
S1130540BC8389819A81AB81BC81BC01CD010F90B0
S11305500F900F900F90DF91CF911F910F91FF900B
S1130560EF90DF90CF90BF90AF900895EF920F93EC
S1130570CF93DF93CDB7DEB78BE590E02BE530E08A
S1130580F90120812064FC01208385E590E025E5C4
S113059030E0F90120812160FC01208385E590E0B1
S11305A025E530E0F90120812D7FFC01208368944A
S11305B0EE24E6F800E020E041E060E080E00E9404
S11305C0D1078FE590E02FE530E0F9012081206824
S11305D0FC0120830000DF91CF910F91EF900895EB
S11305E0CF93DF93CDB7DEB741E061E080E00E94B6
S11305F0290168E97AE380E090E00E94090640E07E
S113060061E080E00E9429010000DF91CF9108950C
S1130610CF93DF931F92CDB7DEB789838981882F6B
S113062090E080329105C1F0813291051CF440972D
S113063041F033C080349105D1F08038910511F137
S11306402CC04FEF60E181E00E947D0040E060E15A
S113065081E00E94290121C04FEF60E281E00E9405
S11306607D0040E060E281E00E94290116C04FEF66
S113067060E481E00E947D0040E060E481E00E944B
S113068029010BC04FEF60E881E00E947D0040E04B
S113069060E881E00E942901000000000F90DF91D2
S11306A0CF910895CF93DF931F92CDB7DEB789839F
S11306B08981882F90E08032910599F081329105EB
S11306C01CF4409741F01FC08034910581F08038BC
S11306D0910599F018C041E060E181E00E94290190
S11306E012C041E060E281E00E9429010CC041E0B7
S11306F060E481E00E94290106C041E060E881E0F5
S11307000E942901000000000F90DF91CF9108950D
S1130710CF93DF931F92CDB7DEB789838981882F6A
S113072090E08032910599F0813291051CF4409754
S113073041F01FC08034910581F08038910599F013
S113074018C040E060E181E00E94290112C040E04D
S113075060E281E00E9429010CC040E060E481E095
S11307600E94290106C040E060E881E00E9429015E
S1130770000000000F90DF91CF910895CF93DF9395
S1130780CDB7DEB741E060E180E00E94290140E09E
S113079060E280E00E94290141E060E480E00E9480
S11307A0290140E060E880E00E9429010000DF9117
S11307B0CF910895CF93DF93CDB7DEB740E060E1EA
S11307C080E00E94290141E060E280E00E9429016A
S11307D041E060E480E00E94290140E060E880E0BC
S11307E00E9429010000DF91CF910895AF92CF922A
S11307F0DF92EF920F93CF93DF9300D0CDB7DEB7A4
S113080082E390E09A8389836FEF80E00E94460040
S11308106FEF82E00E94460040E064E083E00E94C3
S11308207D004FEF60E283E00E947D000E94B602EB
S1130830A12CC12CD12CE12C00E020E030E045E0DB
S113084060E882E10E940507E12C00E020E041E03D
S113085050E060E080E00E9467040E94AC070E94C0
S1130860E80480E10E94080380E20E9408030E94D9
S1130870F0020E945902DC01CB019A8389838981A9
S11308809A814E9790F464EF71E084E10E946D08C0
S11308900E94DA0384E690E00E940C0580E10E9445
S11308A0520380E20E948803E2CF89819A814F97A4
S11308B0F0F264EF71E082E30E946D080E94BE03CF
S11308C080E10E94880380E20E945203D0CFEF921D
S11308D00F93CF93DF93CDB7DEB727970FB6F89476
S11308E0DEBF0FBECDBF89836A835C834B832D83B8
S11308F00E83EF8283E590E023E530E0F901308157
S113090049812A81242B232BFC01208382E590E05A
S11309102D81FC0120838CE590E02E81FC01208355
S113092089E590E029E530E0F90130812F81232B1E
S1130930FC0120838B8180936A008B819C818230AF
S11309409105F1F08330910528F4009769F001973F
S113095081F032C08430910509F184309105B8F0FA
S11309608130914011F128C01092720010927100F0
S113097023C081E090E090937200809371001CC0CA
S113098088E090E0909372008093710015C080E439
S113099090E090937200809371000EC080E091E02B
S11309A0909372008093710007C080E094E090936C
S11309B07200809371000000000027960FB6F8942F
S11309C0DEBF0FBECDBFDF91CF910F91EF900895A1
S11309D0CF93DF93CDB7DEB740916A0083E590E013
S11309E023E530E0F9012081242BFC012083000061
S11309F0DF91CF910895CF93DF93CDB7DEB783E531
S1130A0090E023E530E0F9012081287FFC01208378
S1130A100000DF91CF9108952F923F924F925F9201
S1130A206F927F928F929F92AF92BF92CF92DF92FA
S1130A30EF92FF920F931F93CF93DF93CDB7DEB75F
S1130A402A970FB6F894DEBF0FBECDBF9A87898769
S1130A5089859A851C01412C512C612C712C4301F0
S1130A60A12C0F2EF2E1BF2EF02D0F2EFAE7CF2E80
S1130A70F02DD12CE12CF12C00E010E0222D332DAF
S1130A80442D552D662D772D882D992D0E944A0BC6
S1130A90222E332E442E552E662E772E882E992EF6
S1130AA0A22CB32CC42CD52CE62CF72C082D192DF4
S1130AB02A2D3B2D4C2D5D2D6E2D7F2D802F912FBA
S1130AC00E94B8096B017C018091710090917200C1
S1130AD0CC01A0E0B0E0BC01CD010E94BE09DC0164
S1130AE0CB0120E030E040E853E4BC01CD010E949A
S1130AF09A0ADC01CB0120E030E04AE754E4BC016F
S1130B00CD010E949A0ADC01CB019C01AD01C70111
S1130B10B6010E94DB08DC01CB01BC01CD010E94BF
S1130B204D09A22EB32EC42ED52EE62EF72E082F55
S1130B30192FA982BA82CB82DC82ED82FE820F83D6
S1130B40188782E590E0FC0110820E94E80414C03A
S1130B50000088E590E0FC018081882F90E081709E
S1130B609927892BB1F388E590E028E530E0F90175
S1130B7020812160FC012083A980BA80CB80DC80A5
S1130B80ED80FE800F8118852A2D3B2D4C2D5D2D87
S1130B906E2D7F2D802F912FAFEF0E94A30B222E5D
S1130BA0332E442E552E662E772E882E992E29828A
S1130BB03A824B825C826D827E828F8298862A2D55
S1130BC03B2D4C2D5D2D6E2D7F2D802F912FA0E080
S1130BD00E94AF0B11F00CF0BBCF0E94FB0400008D
S1130BE02A960FB6F894DEBF0FBECDBFDF91CF912A
S1130BF01F910F91FF90EF90DF90CF90BF90AF9037
S1130C009F908F907F906F905F904F903F902F9028
S1130C1008952F923F924F925F926F927F928F929C
S1130C209F92AF92BF92CF92DF92EF92FF920F9377
S1130C301F93CF93DF93CDB7DEB72C970FB6F894FD
S1130C40DEBF0FBECDBF69877A878B879C87898576
S1130C509A85AB85BC851C012D01612C712C430147
S1130C60A12C0F2EF2E1BF2EF02D0F2EFAE7CF2E7E
S1130C70F02DD12CE12CF12C00E010E0222D332DAD
S1130C80442D552D662D772D882D992D0E944A0BC4
S1130C90222E332E442E552E662E772E882E992EF4
S1130CA0A22CB32CC42CD52CE62CF72C082D192DF2
S1130CB02A2D3B2D4C2D5D2D6E2D7F2D802F912FB8
S1130CC00E94FB096B017C0180917100909172007C
S1130CD0CC01A0E0B0E0BC01CD010E94BE09DC0162
S1130CE0CB0120E030E040E853E4BC01CD010E9498
S1130CF09A0ADC01CB0128E23BE64EE65EE4BC0145
S1130D00CD010E949A0ADC01CB019C01AD01C7010F
S1130D10B6010E94DB08DC01CB01BC01CD010E94BD
S1130D204D09A22EB32EC42ED52EE62EF72E082F53
S1130D30192FA982BA82CB82DC82ED82FE820F83D4
S1130D4018870E94E80414C0000088E590E0FC01C4
S1130D508081882F90E081709927892BB1F388E5F1
S1130D6090E028E530E0F90120812160FC01208336
S1130D70A980BA80CB80DC80ED80FE800F8118854D
S1130D802A2D3B2D4C2D5D2D6E2D7F2D802F912FE7
S1130D90AFEF0E94A30B222E332E442E552E662E27
S1130DA0772E882E992E29823A824B825C826D821C
S1130DB07E828F8298862A2D3B2D4C2D5D2D6E2DA3
S1130DC07F2D802F912FA0E00E94AF0B11F00CF02B
S1130DD0BBCF0E94FB0400002C960FB6F894DEBF34
S1130DE00FBECDBFDF91CF911F910F91FF90EF9078
S1130DF0DF90CF90BF90AF909F908F907F906F9037
S1130E005F904F903F902F900895AF92CF92DF92D2
S1130E10EF920F93CF93DF93CDB7DEB72A970FB638
S1130E20F894DEBF0FBECDBF89836A834B833D83B5
S1130E302C830E83EF82D986C886AA868FE490E03D
S1130E402FE430E0F9012081322F29812370232BF4
S1130E50FC0120838FE490E02FE430E0F90130813D
S1130E602A81232BFC0120838EE490E02EE430E0E1
S1130E70F9012081322F29812871232BFC01208341
S1130E808CE490E02C813D81FC01318320838AE451
S1130E9090E02E81FC0120838BE490E02F81FC0103
S1130EA0208389E590E029E530E0F90130812A8545
S1130EB0232BFC0120838B8180936B008B81882FF3
S1130EC090E082309105E9F0833091052CF400978D
S1130ED061F0019779F031C08430910501F18430DB
S1130EE09105B4F0059711F128C01092700010928A
S1130EF06F0023C081E090E09093700080936F00B6
S1130F001CC088E090E09093700080936F0015C03F
S1130F1080E490E09093700080936F000EC080E0B6
S1130F2091E09093700080936F0007C080E094E09C
S1130F309093700080936F00000000002A960FB613
S1130F40F894DEBF0FBECDBFDF91CF910F91EF902C
S1130F50DF90CF90AF900895CF93DF93CDB7DEB7F6
S1130F608EE490E02EE430E0F9012081287F309176
S1130F706B00232BFC0120830000DF91CF910895A7
S1130F80CF93DF93CDB7DEB78EE490E02EE430E06C
S1130F90F9012081287FFC0120830000DF91CF919B
S1130FA00895EF920F93CF93DF9300D000D000D039
S1130FB0CDB7DEB789836A834B832C830D83EE829E
S1130FC085E490E025E430E0F901308149812A810B
S1130FD0242B232BFC01208384E490E02C81FC014E
S1130FE0208383E490E02D81FC01208389E590E057
S1130FF029E530E0F90130812E81232BFC01208387
S11310008B8180936C008B81882F90E0092E000CDB
S1131010AA0BBB0B40E050E027E030E0841B950BAB
S113102028173907D8F1865D9F4FFC010C94390BC2
S113103010926E0010926D0031C081E090E09093A8
S11310406E0080936D002AC088E090E090936E005B
S113105080936D0023C080E290E090936E008093B3
S11310606D001CC080E490E090936E0080936D004E
S113107015C080E890E090936E0080936D000EC0E0
S113108080E091E090936E0080936D0007C080E053
S113109094E090936E0080936D000000000026960B
S11310A00FB6F894DEBF0FBECDBFDF91CF910F9185
S11310B0EF900895CF93DF93CDB7DEB740916C00E6
S11310C085E490E025E430E0F9012081242BFC0143
S11310D020830000DF91CF910895CF93DF93CDB7A4
S11310E0DEB72B970FB6F894DEBF0FBECDBF89874E
S11310F07B876A878A859B85982F8827990F990F04
S1131100990F9C0140E050E080E092E1AAE7B0E052
S1131110BC01CD010E94170BDA01C90189839A83AE
S1131120AB83BC838985282F30E040E050E089817F
S11311309A81AB81BC81BC01CD010E94070BDC010B
S1131140CB0124E630E040E050E0BC01CD010E9438
S1131150170BDA01C9018D839E83AF83B88727E417
S113116030E089819A81AB81BC81892F9A2FAB2F82
S1131170BB27F901808386E490E02981FC01208368
S11311802BE430E08D819E81AF81B885892F9A2F21
S1131190AB2FBB27F90180838AE490E02D81FC0109
S11311A0208300002B960FB6F894DEBF0FBECDBF90
S11311B0DF91CF9108950E94EF080C94600A0E9479
S11311C0590A58F00E94520A40F029F45F3F29F06E
S11311D00C94390A51110C94940A0C943F0A0E94FD
S11311E0710A68F39923B1F3552391F3951B550BB9
S11311F0BB27AA2762177307840738F09F5F5F4FE6
S1131200220F331F441FAA1FA9F335D00E2E3AF024
S1131210E0E832D091505040E695001CCAF72BD03C
S1131220FE2F29D0660F771F881FBB1F261737078D
S11312304807AB07B0E809F0BB0B802DBF01FF27BF
S113124093585F4F3AF09E3F510578F00C94390A59
S11312500C94940A5F3FE4F3983ED4F38695779513
S11312606795B795F7959F5FC9F7880F911D969578
S1131270879597F90895E1E0660F771F881FBB1FD4
S1131280621773078407BA0720F0621B730B840B81
S1131290BA0BEE1F88F7E0950895BEE304D008F476
S11312A090E80895BFE322273327A9010E94790A11
S11312B060F19F5748F1B91740F1BFE3B91B992773
S11312C0B8503AF4660F771F881F991FB395D2F36D
S11312D016C0B8504AF0232F342F452F562F672FAE
S11312E0782F8827B850BAF7B85F49F08695779574
S11312F067955795479537952795BA95B9F716F495
S11313000E94420A88940895889460E070E0CB01BA
S113131008950E94790A88F09F5798F0B92F992769
S1131320B751B0F0E1F0660F771F881F991F1AF0CC
S1131330BA95C9F714C0B13091F00E94930AB1E094
S113134008950C94930A672F782F8827B85F39F093
S1131350B93FCCF3869577956795B395D9F73EF465
S113136090958095709561957F4F8F4F9F4F08950D
S113137097FB16F40E94420A0C94FC09E89409C0F5
S113138097FB3EF490958095709561957F4F8F4FB4
S11313909F4F9923A9F0F92F96E9BB279395F695CA
S11313A0879577956795B795F111F8CFFAF4BB0F48
S11313B011F460FF1BC06F5F7F4F8F4F9F4F16C0AC
S11313C0882311F096E911C0772321F09EE8872F36
S11313D0762F05C0662371F096E8862F70E060E0F2
S11313E02AF09A95660F771F881FDAF7880F96956B
S11313F0879597F90895E894F92F96EBFF2381F0E8
S1131400121613061406440B9395F6958795779553
S1131410679557954040FF23B9F71BC09927089556
S1131420882351F49850D2F7872B762F652F542FA9
S1131430432F322F20E0B1F3121613061406440B87
S113144088233AF09A95440F551F661F771F881F0B
S1131450CAF755234AF4440F551F11F460FF04C022
S11314606F5F7F4F8F4F9F4F880F9695879597F9A2
S1131470089597F99F6780E870E060E008959FEF12
S113148080EC089590958095709560955095409561
S1131490309521953F4F4F4F5F4F6F4F7F4F8F4F89
S11314A09F4F089500240A94161617061806090675
S11314B0089500240A9412161306140605060895C6
S11314C0092E0394000C11F4882352F0BB0F40F44E
S11314D0BF2B11F460FF04C06F5F7F4F8F4F9F4F8E
S11314E0089557FD9058440F551F59F05F3F71F010
S11314F04795880F97FB991F61F09F3F79F0879577
S11315000895121613061406551FF2CF4695F1DFFF
S113151008C0161617061806991FF1CF869571058F
S1131520610508940895E894BB2766277727CB01C3
S113153097F908950E94AD0A0C94600A0E94520A19
S113154038F00E94590A20F0952311F00C94390ABE
S11315500C943F0A11240C94940A0E94710A70F3AB
S1131560959FC1F3950F50E0551F629FF001729F44
S1131570BB27F00DB11D639FAA27F00DB11DAA1F53
S1131580649F6627B00DA11D661F829F2227B00DA0
S1131590A11D621F739FB00DA11D621F839FA00D2B
S11315A0611D221F749F3327A00D611D231F849F7B
S11315B0600D211D822F762F6A2F11249F575040D2
S11315C09AF0F1F088234AF0EE0FFF1FBB1F661F4D
S11315D0771F881F91505040A9F79E3F510580F016
S11315E00C94390A0C94940A5F3FE4F3983ED4F3C4
S11315F0869577956795B795F795E7959F5FC1F7BA
S1131600FE2B880F911D9695879597F90895DB0118
S11316108F939F930E943F0BBF91AF91A29F800D28
S1131620911DA39F900DB29F900D11240895A1E2E6
S11316301A2EAA1BBB1BFD010DC0AA1FBB1FEE1F48
S1131640FF1FA217B307E407F50720F0A21BB30B93
S1131650E40BF50B661F771F881F991F1A9469F70F
S113166060957095809590959B01AC01BD01CF016B
S11316700895EE0FFF1F0590F491E02D09940E9448
S1131680BB0BA59F900DB49F900DA49F800D911D41
S113169011240895DF93CF931F930F939A9DF02DF8
S11316A0219FF00D8B9DF00D8A9DE02DF10D039F80
S11316B0F00D029FE00DF11D4E9DE00DF11D5E9DAC
S11316C0F00D4F9DF00D7F936F93BF92AF925F9398
S11316D04F93D5010E94BB0B8B01AC01D7010E9433
S11316E0BB0BEB01E80FF91FD6010E949A0B2F9157
S11316F03F91D6010E94BB0BC60FD71FE81FF91FED
S1131700AF91BF910E949A0B2F913F910E94BB0B06
S1131710C60FD71FE81FF91FD6010E94BB0BE60FA7
S1131720F71F9801BE01CF0111240F911F91CF9192
S1131730DF9108950E94BB0B460F571FC81FD91F86
S113174008F4319608950024A7FD00942A0F301D53
S1131750401D501D601D701D801D901D08950024A6
S1131760A7FD00942A173005400550056005700553
S1131770800590050895A29FB001B39FC001A39F67
S1131780700D811D1124911DB29F700D811D1124B6
S10B1790911D0895F894FFCFA8
S9030000FC
